S00D00005465747269732E6F626A0E
S123C0004FC718024504B0946EAA4A6E06480D4BFD6E330B6E0F036E03056E761B6E000DD0
S123C020A60FC718586EC31D141C121C6E001E9A6E01D66E00D96E00D46E000A6E00021177
S123C0400C4500151204450BB8CDC2E813046E0FB06E00CF6E00D76E00D8B6CF410004B655
S123C060D7BBCFB7D7AE648C528B86A10B2A036E13D73CD88CAE64528B86B7D8A12D2A03FC
S123C0806E0FD8100445012CCDC2E8110445012CCDC2E83BB0ED6EFFB16E00B26E00B36EA7
S123C0A000B46E00B56E00B66E00B76E00B86E00B96E00BA6E00BB6E00BC6E00BD6E00BE3D
S123C0C06E00BF6E00C06E00C16E00C26E00C36E00C46E00C56E14CB6E07CC6E00B06E0FE3
S123C0E0CAB6D64100386E00C66E00C76E00C86E00C9BED6D6C387B7C6CDC2853BCAFA6EE5
S123C10001D5CDC1B76E0FCAB6D6411103CCC0F2CDC285B6D6410003CCC110CCC033CDC28B
S123C120853BCAFAB6D94101116EFFCA6E01D5B6D44101EACDC1B7CCC11E6E2FCA6E01D5C9
S123C140B6D44101D9CDC1B7CCC11E6E00D6CDC2F0CDC2F080B60CA40F410E0C410D244101
S123C1600B36410718141C800EC6FA0EC7F70EC8F40EC9F16E02D5CDC1B7CCC1656E01D97A
S123C180CCC16500C6DF00C7DC00C8D900C9D66E00D5CDC1B7CCC165B6D66E00D6CDC2F058
S123C1A0CDC2F0CCC165B6D44100066E00D4CCC1656E01D4CCC165B6D541011941020B3468
S123C1C0C634C734C834C9CCC1D738C638C738C838C9CCC1D73ACBBECBE6B1AE00E4C6411D
S123C1E0000BB6D5410161410255CCC236BECB5AE6B1AE01E4C641000BB6D541014A41022D
S123C2003ECCC236BECB5A5AE6B1AE02E4C641000BB6D5410132410226CCC236BECB5A5A35
S123C2205AE6B1AE03E4C641000BB6D541011941020DCCC2368138C638C738C838C9813434
S123C240C634C734C834C9813CCBBECBE6B1BAC6E7B13ACBBECBE6B1BAC7E7B13ACBBECB94
S123C260E6B1BAC8E7B13ACBBECBE6B1BAC9E7B16E14CB6E02CC6E00D9B6D64100033CD617
S123C28081CDC2F081B6CB31B0474A31B0434A31B03F4A31B03B8C3CB0BEB051112FE6B124
S123C2A08CB702B7D56E000A09D502100A0BD502120A0DD502180A0FD5021A0A10044501CF
S123C2C0F4CDC2E811044501F4CDC2E8816E00B081B6CBB0B087BEB05CE6B188EAC63CB01C
S123C2E0BEB05111E8CCC2A0AFFF65000026F9813CD7B6D7BED842898AAE64528BAE0A8CE3
S123C300528B86424ED8D7B7D8868CAE0A5287BBD8B7D88641001541011F41022941033303
S123C32041043D410547410651CCC2F06E08C66E18C76E10C86E00C9816E10C66E18C76E4E
S123C34008C86E00C9816E00C66E18C76E18C86E00C9816E10C66E10C76E18C86E00C9813B
S123C3606E10C66E10C76E30C86E00C9816E10C66E10C76E10C86E10C9816E00C66E08C70A
S11BC3806E1CC86E00C981FFEE84E42EE05252325277E424E424EE8017
S105FFCCC15519
S105FFFAC14BF5
S105FFFEC0003D
S9030000FC
